{
  "contractName": "ChanToken",
  "abi": [
    {
      "inputs": [
        {
          "internalType": "string",
          "name": "_name",
          "type": "string"
        },
        {
          "internalType": "string",
          "name": "_symbol",
          "type": "string"
        },
        {
          "internalType": "string",
          "name": "_metadataURI",
          "type": "string"
        }
      ],
      "stateMutability": "nonpayable",
      "type": "constructor"
    },
    {
      "anonymous": false,
      "inputs": [
        {
          "indexed": true,
          "internalType": "address",
          "name": "owner",
          "type": "address"
        },
        {
          "indexed": true,
          "internalType": "address",
          "name": "approved",
          "type": "address"
        },
        {
          "indexed": true,
          "internalType": "uint256",
          "name": "tokenId",
          "type": "uint256"
        }
      ],
      "name": "Approval",
      "type": "event"
    },
    {
      "anonymous": false,
      "inputs": [
        {
          "indexed": true,
          "internalType": "address",
          "name": "owner",
          "type": "address"
        },
        {
          "indexed": true,
          "internalType": "address",
          "name": "operator",
          "type": "address"
        },
        {
          "indexed": false,
          "internalType": "bool",
          "name": "approved",
          "type": "bool"
        }
      ],
      "name": "ApprovalForAll",
      "type": "event"
    },
    {
      "anonymous": false,
      "inputs": [
        {
          "indexed": true,
          "internalType": "address",
          "name": "previousOwner",
          "type": "address"
        },
        {
          "indexed": true,
          "internalType": "address",
          "name": "newOwner",
          "type": "address"
        }
      ],
      "name": "OwnershipTransferred",
      "type": "event"
    },
    {
      "anonymous": false,
      "inputs": [
        {
          "indexed": true,
          "internalType": "address",
          "name": "from",
          "type": "address"
        },
        {
          "indexed": true,
          "internalType": "address",
          "name": "to",
          "type": "address"
        },
        {
          "indexed": true,
          "internalType": "uint256",
          "name": "tokenId",
          "type": "uint256"
        }
      ],
      "name": "Transfer",
      "type": "event"
    },
    {
      "inputs": [],
      "name": "MAX_TOKEN_COUNT",
      "outputs": [
        {
          "internalType": "uint256",
          "name": "",
          "type": "uint256"
        }
      ],
      "stateMutability": "view",
      "type": "function",
      "constant": true
    },
    {
      "inputs": [
        {
          "internalType": "uint256",
          "name": "",
          "type": "uint256"
        }
      ],
      "name": "TokenDatas",
      "outputs": [
        {
          "internalType": "uint256",
          "name": "Rank",
          "type": "uint256"
        },
        {
          "internalType": "uint256",
          "name": "Type",
          "type": "uint256"
        }
      ],
      "stateMutability": "view",
      "type": "function",
      "constant": true
    },
    {
      "inputs": [
        {
          "internalType": "address",
          "name": "to",
          "type": "address"
        },
        {
          "internalType": "uint256",
          "name": "tokenId",
          "type": "uint256"
        }
      ],
      "name": "approve",
      "outputs": [],
      "stateMutability": "nonpayable",
      "type": "function"
    },
    {
      "inputs": [
        {
          "internalType": "address",
          "name": "owner",
          "type": "address"
        }
      ],
      "name": "balanceOf",
      "outputs": [
        {
          "internalType": "uint256",
          "name": "",
          "type": "uint256"
        }
      ],
      "stateMutability": "view",
      "type": "function",
      "constant": true
    },
    {
      "inputs": [
        {
          "internalType": "uint256",
          "name": "tokenId",
          "type": "uint256"
        }
      ],
      "name": "getApproved",
      "outputs": [
        {
          "internalType": "address",
          "name": "",
          "type": "address"
        }
      ],
      "stateMutability": "view",
      "type": "function",
      "constant": true
    },
    {
      "inputs": [
        {
          "internalType": "address",
          "name": "owner",
          "type": "address"
        },
        {
          "internalType": "address",
          "name": "operator",
          "type": "address"
        }
      ],
      "name": "isApprovedForAll",
      "outputs": [
        {
          "internalType": "bool",
          "name": "",
          "type": "bool"
        }
      ],
      "stateMutability": "view",
      "type": "function",
      "constant": true
    },
    {
      "inputs": [],
      "name": "metadataURI",
      "outputs": [
        {
          "internalType": "string",
          "name": "",
          "type": "string"
        }
      ],
      "stateMutability": "view",
      "type": "function",
      "constant": true
    },
    {
      "inputs": [],
      "name": "mint_price",
      "outputs": [
        {
          "internalType": "uint256",
          "name": "",
          "type": "uint256"
        }
      ],
      "stateMutability": "view",
      "type": "function",
      "constant": true
    },
    {
      "inputs": [],
      "name": "name",
      "outputs": [
        {
          "internalType": "string",
          "name": "",
          "type": "string"
        }
      ],
      "stateMutability": "view",
      "type": "function",
      "constant": true
    },
    {
      "inputs": [],
      "name": "owner",
      "outputs": [
        {
          "internalType": "address",
          "name": "",
          "type": "address"
        }
      ],
      "stateMutability": "view",
      "type": "function",
      "constant": true
    },
    {
      "inputs": [
        {
          "internalType": "uint256",
          "name": "tokenId",
          "type": "uint256"
        }
      ],
      "name": "ownerOf",
      "outputs": [
        {
          "internalType": "address",
          "name": "",
          "type": "address"
        }
      ],
      "stateMutability": "view",
      "type": "function",
      "constant": true
    },
    {
      "inputs": [],
      "name": "renounceOwnership",
      "outputs": [],
      "stateMutability": "nonpayable",
      "type": "function"
    },
    {
      "inputs": [
        {
          "internalType": "address",
          "name": "from",
          "type": "address"
        },
        {
          "internalType": "address",
          "name": "to",
          "type": "address"
        },
        {
          "internalType": "uint256",
          "name": "tokenId",
          "type": "uint256"
        }
      ],
      "name": "safeTransferFrom",
      "outputs": [],
      "stateMutability": "nonpayable",
      "type": "function"
    },
    {
      "inputs": [
        {
          "internalType": "address",
          "name": "from",
          "type": "address"
        },
        {
          "internalType": "address",
          "name": "to",
          "type": "address"
        },
        {
          "internalType": "uint256",
          "name": "tokenId",
          "type": "uint256"
        },
        {
          "internalType": "bytes",
          "name": "_data",
          "type": "bytes"
        }
      ],
      "name": "safeTransferFrom",
      "outputs": [],
      "stateMutability": "nonpayable",
      "type": "function"
    },
    {
      "inputs": [
        {
          "internalType": "address",
          "name": "operator",
          "type": "address"
        },
        {
          "internalType": "bool",
          "name": "approved",
          "type": "bool"
        }
      ],
      "name": "setApprovalForAll",
      "outputs": [],
      "stateMutability": "nonpayable",
      "type": "function"
    },
    {
      "inputs": [
        {
          "internalType": "bytes4",
          "name": "interfaceId",
          "type": "bytes4"
        }
      ],
      "name": "supportsInterface",
      "outputs": [
        {
          "internalType": "bool",
          "name": "",
          "type": "bool"
        }
      ],
      "stateMutability": "view",
      "type": "function",
      "constant": true
    },
    {
      "inputs": [],
      "name": "symbol",
      "outputs": [
        {
          "internalType": "string",
          "name": "",
          "type": "string"
        }
      ],
      "stateMutability": "view",
      "type": "function",
      "constant": true
    },
    {
      "inputs": [
        {
          "internalType": "uint256",
          "name": "index",
          "type": "uint256"
        }
      ],
      "name": "tokenByIndex",
      "outputs": [
        {
          "internalType": "uint256",
          "name": "",
          "type": "uint256"
        }
      ],
      "stateMutability": "view",
      "type": "function",
      "constant": true
    },
    {
      "inputs": [
        {
          "internalType": "uint256",
          "name": "",
          "type": "uint256"
        },
        {
          "internalType": "uint256",
          "name": "",
          "type": "uint256"
        }
      ],
      "name": "tokenCount",
      "outputs": [
        {
          "internalType": "uint256",
          "name": "",
          "type": "uint256"
        }
      ],
      "stateMutability": "view",
      "type": "function",
      "constant": true
    },
    {
      "inputs": [
        {
          "internalType": "address",
          "name": "owner",
          "type": "address"
        },
        {
          "internalType": "uint256",
          "name": "index",
          "type": "uint256"
        }
      ],
      "name": "tokenOfOwnerByIndex",
      "outputs": [
        {
          "internalType": "uint256",
          "name": "",
          "type": "uint256"
        }
      ],
      "stateMutability": "view",
      "type": "function",
      "constant": true
    },
    {
      "inputs": [],
      "name": "totalSupply",
      "outputs": [
        {
          "internalType": "uint256",
          "name": "",
          "type": "uint256"
        }
      ],
      "stateMutability": "view",
      "type": "function",
      "constant": true
    },
    {
      "inputs": [
        {
          "internalType": "address",
          "name": "from",
          "type": "address"
        },
        {
          "internalType": "address",
          "name": "to",
          "type": "address"
        },
        {
          "internalType": "uint256",
          "name": "tokenId",
          "type": "uint256"
        }
      ],
      "name": "transferFrom",
      "outputs": [],
      "stateMutability": "nonpayable",
      "type": "function"
    },
    {
      "inputs": [
        {
          "internalType": "address",
          "name": "newOwner",
          "type": "address"
        }
      ],
      "name": "transferOwnership",
      "outputs": [],
      "stateMutability": "nonpayable",
      "type": "function"
    },
    {
      "inputs": [],
      "name": "mintToken",
      "outputs": [],
      "stateMutability": "payable",
      "type": "function",
      "payable": true
    },
    {
      "inputs": [
        {
          "internalType": "uint256",
          "name": "_tokenId",
          "type": "uint256"
        }
      ],
      "name": "tokenURI",
      "outputs": [
        {
          "internalType": "string",
          "name": "",
          "type": "string"
        }
      ],
      "stateMutability": "view",
      "type": "function",
      "constant": true
    },
    {
      "inputs": [
        {
          "internalType": "string",
          "name": "_uri",
          "type": "string"
        }
      ],
      "name": "setMetadataURI",
      "outputs": [],
      "stateMutability": "nonpayable",
      "type": "function"
    },
    {
      "inputs": [
        {
          "internalType": "uint256",
          "name": "_tokenId",
          "type": "uint256"
        }
      ],
      "name": "getTokenRank",
      "outputs": [
        {
          "internalType": "uint256",
          "name": "",
          "type": "uint256"
        }
      ],
      "stateMutability": "view",
      "type": "function",
      "constant": true
    },
    {
      "inputs": [
        {
          "internalType": "uint256",
          "name": "_tokenId",
          "type": "uint256"
        }
      ],
      "name": "getTokenType",
      "outputs": [
        {
          "internalType": "uint256",
          "name": "",
          "type": "uint256"
        }
      ],
      "stateMutability": "view",
      "type": "function",
      "constant": true
    },
    {
      "inputs": [],
      "name": "getTokenCount",
      "outputs": [
        {
          "internalType": "uint256[4][4]",
          "name": "",
          "type": "uint256[4][4]"
        }
      ],
      "stateMutability": "view",
      "type": "function",
      "constant": true
    }
  ],
  "bytecode": "0x6080604052670de0b6b3a7640000600b553480156200001d57600080fd5b506040516200494e3803806200494e833981810160405281019062000043919062000311565b8282816000908162000056919062000615565b50806001908162000068919062000615565b5050506200008b6200007f620000a660201b60201c565b620000ae60201b60201c565b80600c90816200009c919062000615565b50505050620006fc565b600033905090565b6000600a60009054906101000a900473ffffffffffffffffffffffffffffffffffffffff16905081600a60006101000a81548173ffffffffffffffffffffffffffffffffffffffff021916908373ffffffffffffffffffffffffffffffffffffffff1602179055508173ffffffffffffffffffffffffffffffffffffffff168173ffffffffffffffffffffffffffffffffffffffff167f8be0079c531659141344cd1fd0a4f28419497f9722a3daafe3b4186f6b6457e060405160405180910390a35050565b6000604051905090565b600080fd5b600080fd5b600080fd5b600080fd5b6000601f19601f8301169050919050565b7f4e487b7100000000000000000000000000000000000000000000000000000000600052604160045260246000fd5b620001dd8262000192565b810181811067ffffffffffffffff82111715620001ff57620001fe620001a3565b5b80604052505050565b60006200021462000174565b9050620002228282620001d2565b919050565b600067ffffffffffffffff821115620002455762000244620001a3565b5b620002508262000192565b9050602081019050919050565b60005b838110156200027d57808201518184015260208101905062000260565b838111156200028d576000848401525b50505050565b6000620002aa620002a48462000227565b62000208565b905082815260208101848484011115620002c957620002c86200018d565b5b620002d68482856200025d565b509392505050565b600082601f830112620002f657620002f562000188565b5b81516200030884826020860162000293565b91505092915050565b6000806000606084860312156200032d576200032c6200017e565b5b600084015167ffffffffffffffff8111156200034e576200034d62000183565b5b6200035c86828701620002de565b935050602084015167ffffffffffffffff81111562000380576200037f62000183565b5b6200038e86828701620002de565b925050604084015167ffffffffffffffff811115620003b257620003b162000183565b5b620003c086828701620002de565b9150509250925092565b600081519050919050565b7f4e487b7100000000000000000000000000000000000000000000000000000000600052602260045260246000fd5b600060028204905060018216806200041d57607f821691505b602082108103620004335762000432620003d5565b5b50919050565b60008190508160005260206000209050919050565b60006020601f8301049050919050565b600082821b905092915050565b6000600883026200049d7fffffffffffffffffffffffffffffffffffffffffffffffffffffffffffffffff826200045e565b620004a986836200045e565b95508019841693508086168417925050509392505050565b6000819050919050565b6000819050919050565b6000620004f6620004f0620004ea84620004c1565b620004cb565b620004c1565b9050919050565b6000819050919050565b6200051283620004d5565b6200052a6200052182620004fd565b8484546200046b565b825550505050565b600090565b6200054162000532565b6200054e81848462000507565b505050565b5b8181101562000576576200056a60008262000537565b60018101905062000554565b5050565b601f821115620005c5576200058f8162000439565b6200059a846200044e565b81016020851015620005aa578190505b620005c2620005b9856200044e565b83018262000553565b50505b505050565b600082821c905092915050565b6000620005ea60001984600802620005ca565b1980831691505092915050565b6000620006058383620005d7565b9150826002028217905092915050565b6200062082620003ca565b67ffffffffffffffff8111156200063c576200063b620001a3565b5b62000648825462000404565b620006558282856200057a565b600060209050601f8311600181146200068d576000841562000678578287015190505b620006848582620005f7565b865550620006f4565b601f1984166200069d8662000439565b60005b82811015620006c757848901518255600182019150602085019450602081019050620006a0565b86831015620006e75784890151620006e3601f891682620005d7565b8355505b6001600288020188555050505b505050505050565b614242806200070c6000396000f3fe6080604052600436106101c25760003560e01c806370a08231116100f7578063a22cb46511610095578063d9f33c1411610064578063d9f33c141461065c578063e985e9c514610699578063ea3b04ba146106d6578063f2fde38b14610713576101c2565b8063a22cb465146105a2578063b88d4fde146105cb578063c87b56dd146105f4578063d0bbb0d714610631576101c2565b806376aed2e1116100d157806376aed2e1146104e457806378a89567146105215780638da5cb5b1461054c57806395d89b4114610577576101c2565b806370a0823114610467578063715018a6146104a4578063750521f5146104bb576101c2565b80631b8151ae116101645780632f745c591161013e5780632f745c591461038757806342842e0e146103c45780634f6ccce7146103ed5780636352211e1461042a576101c2565b80631b8151ae146103165780632004ffd91461035457806323b872dd1461035e576101c2565b8063081812fc116101a0578063081812fc1461025a578063095ea7b31461029757806318160ddd146102c05780631a4231a4146102eb576101c2565b806301ffc9a7146101c757806303ee438c1461020457806306fdde031461022f575b600080fd5b3480156101d357600080fd5b506101ee60048036038101906101e991906128f6565b61073c565b6040516101fb919061293e565b60405180910390f35b34801561021057600080fd5b506102196107b6565b60405161022691906129f2565b60405180910390f35b34801561023b57600080fd5b50610244610844565b60405161025191906129f2565b60405180910390f35b34801561026657600080fd5b50610281600480360381019061027c9190612a4a565b6108d6565b60405161028e9190612ab8565b60405180910390f35b3480156102a357600080fd5b506102be60048036038101906102b99190612aff565b61095b565b005b3480156102cc57600080fd5b506102d5610a72565b6040516102e29190612b4e565b60405180910390f35b3480156102f757600080fd5b50610300610a7f565b60405161030d9190612b4e565b60405180910390f35b34801561032257600080fd5b5061033d60048036038101906103389190612a4a565b610a85565b60405161034b929190612b69565b60405180910390f35b61035c610aa9565b005b34801561036a57600080fd5b5061038560048036038101906103809190612b92565b610bfb565b005b34801561039357600080fd5b506103ae60048036038101906103a99190612aff565b610c5b565b6040516103bb9190612b4e565b60405180910390f35b3480156103d057600080fd5b506103eb60048036038101906103e69190612b92565b610d00565b005b3480156103f957600080fd5b50610414600480360381019061040f9190612a4a565b610d20565b6040516104219190612b4e565b60405180910390f35b34801561043657600080fd5b50610451600480360381019061044c9190612a4a565b610d91565b60405161045e9190612ab8565b60405180910390f35b34801561047357600080fd5b5061048e60048036038101906104899190612be5565b610e42565b60405161049b9190612b4e565b60405180910390f35b3480156104b057600080fd5b506104b9610ef9565b005b3480156104c757600080fd5b506104e260048036038101906104dd9190612d47565b610f81565b005b3480156104f057600080fd5b5061050b60048036038101906105069190612a4a565b611010565b6040516105189190612b4e565b60405180910390f35b34801561052d57600080fd5b50610536611030565b6040516105439190612ed7565b60405180910390f35b34801561055857600080fd5b506105616110b3565b60405161056e9190612ab8565b60405180910390f35b34801561058357600080fd5b5061058c6110dd565b60405161059991906129f2565b60405180910390f35b3480156105ae57600080fd5b506105c960048036038101906105c49190612f1f565b61116f565b005b3480156105d757600080fd5b506105f260048036038101906105ed9190613000565b611185565b005b34801561060057600080fd5b5061061b60048036038101906106169190612a4a565b6111e7565b60405161062891906129f2565b60405180910390f35b34801561063d57600080fd5b5061064661125d565b6040516106539190612b4e565b60405180910390f35b34801561066857600080fd5b50610683600480360381019061067e9190612a4a565b611263565b6040516106909190612b4e565b60405180910390f35b3480156106a557600080fd5b506106c060048036038101906106bb9190613083565b611283565b6040516106cd919061293e565b60405180910390f35b3480156106e257600080fd5b506106fd60048036038101906106f891906130c3565b611317565b60405161070a9190612b4e565b60405180910390f35b34801561071f57600080fd5b5061073a60048036038101906107359190612be5565b611345565b005b60007f780e9d63000000000000000000000000000000000000000000000000000000007bffffffffffffffffffffffffffffffffffffffffffffffffffffffff1916827bffffffffffffffffffffffffffffffffffffffffffffffffffffffff191614806107af57506107ae8261143c565b5b9050919050565b600c80546107c390613132565b80601f01602080910402602001604051908101604052809291908181526020018280546107ef90613132565b801561083c5780601f106108115761010080835404028352916020019161083c565b820191906000526020600020905b81548152906001019060200180831161081f57829003601f168201915b505050505081565b60606000805461085390613132565b80601f016020809104026020016040519081016040528092919081815260200182805461087f90613132565b80156108cc5780601f106108a1576101008083540402835291602001916108cc565b820191906000526020600020905b8154815290600101906020018083116108af57829003601f168201915b5050505050905090565b60006108e18261151e565b610920576040517f08c379a0000000000000000000000000000000000000000000000000000000008152600401610917906131d5565b60405180910390fd5b6004600083815260200190815260200160002060009054906101000a900473ffffffffffffffffffffffffffffffffffffffff169050919050565b600061096682610d91565b90508073ffffffffffffffffffffffffffffffffffffffff168373ffffffffffffffffffffffffffffffffffffffff16036109d6576040517f08c379a00000000000000000000000000000000000000000000000000000000081526004016109cd90613267565b60405180910390fd5b8073ffffffffffffffffffffffffffffffffffffffff166109f561158a565b73ffffffffffffffffffffffffffffffffffffffff161480610a245750610a2381610a1e61158a565b611283565b5b610a63576040517f08c379a0000000000000000000000000000000000000000000000000000000008152600401610a5a906132f9565b60405180910390fd5b610a6d8383611592565b505050565b6000600880549050905090565b600b5481565b600d6020528060005260406000206000915090508060000154908060010154905082565b600b54341015610ab857600080fd5b610ac0610a72565b6103e811610acd57600080fd5b60006001610ad9610a72565b610ae39190613348565b9050610aef338261164b565b600d600083815260200190815260200160002060008201518160000155602082015181600101559050506001600e6001600d600085815260200190815260200160002060000154610b40919061339e565b60048110610b5157610b506133d2565b5b600402016001600d600085815260200190815260200160002060010154610b78919061339e565b60048110610b8957610b886133d2565b5b016000828254610b999190613348565b92505081905550610ba86110b3565b73ffffffffffffffffffffffffffffffffffffffff166108fc349081150290604051600060405180830381858888f19350505050158015610bed573d6000803e3d6000fd5b50610bf833826118e0565b50565b610c0c610c0661158a565b82611ab9565b610c4b576040517f08c379a0000000000000000000000000000000000000000000000000000000008152600401610c4290613473565b60405180910390fd5b610c56838383611b97565b505050565b6000610c6683610e42565b8210610ca7576040517f08c379a0000000000000000000000000000000000000000000000000000000008152600401610c9e90613505565b60405180910390fd5b600660008473ffffffffffffffffffffffffffffffffffffffff1673ffffffffffffffffffffffffffffffffffffffff168152602001908152602001600020600083815260200190815260200160002054905092915050565b610d1b83838360405180602001604052806000815250611185565b505050565b6000610d2a610a72565b8210610d6b576040517f08c379a0000000000000000000000000000000000000000000000000000000008152600401610d6290613597565b60405180910390fd5b60088281548110610d7f57610d7e6133d2565b5b90600052602060002001549050919050565b6000806002600084815260200190815260200160002060009054906101000a900473ffffffffffffffffffffffffffffffffffffffff169050600073ffffffffffffffffffffffffffffffffffffffff168173ffffffffffffffffffffffffffffffffffffffff1603610e39576040517f08c379a0000000000000000000000000000000000000000000000000000000008152600401610e3090613629565b60405180910390fd5b80915050919050565b60008073ffffffffffffffffffffffffffffffffffffffff168273ffffffffffffffffffffffffffffffffffffffff1603610eb2576040517f08c379a0000000000000000000000000000000000000000000000000000000008152600401610ea9906136bb565b60405180910390fd5b600360008373ffffffffffffffffffffffffffffffffffffffff1673ffffffffffffffffffffffffffffffffffffffff168152602001908152602001600020549050919050565b610f0161158a565b73ffffffffffffffffffffffffffffffffffffffff16610f1f6110b3565b73ffffffffffffffffffffffffffffffffffffffff1614610f75576040517f08c379a0000000000000000000000000000000000000000000000000000000008152600401610f6c90613727565b60405180910390fd5b610f7f6000611dfd565b565b610f8961158a565b73ffffffffffffffffffffffffffffffffffffffff16610fa76110b3565b73ffffffffffffffffffffffffffffffffffffffff1614610ffd576040517f08c379a0000000000000000000000000000000000000000000000000000000008152600401610ff490613727565b60405180910390fd5b80600c908161100c91906138f3565b5050565b6000600d6000838152602001908152602001600020600101549050919050565b611038612821565b600e600480602002604051908101604052809291906000905b828210156110aa57838260040201600480602002604051908101604052809291908260048015611096576020028201915b815481526020019060010190808311611082575b505050505081526020019060010190611051565b50505050905090565b6000600a60009054906101000a900473ffffffffffffffffffffffffffffffffffffffff16905090565b6060600180546110ec90613132565b80601f016020809104026020016040519081016040528092919081815260200182805461111890613132565b80156111655780601f1061113a57610100808354040283529160200191611165565b820191906000526020600020905b81548152906001019060200180831161114857829003601f168201915b5050505050905090565b61118161117a61158a565b8383611ec3565b5050565b61119661119061158a565b83611ab9565b6111d5576040517f08c379a00000000000000000000000000000000000000000000000000000000081526004016111cc90613473565b60405180910390fd5b6111e18484848461202f565b50505050565b6060600061120a600d60008581526020019081526020016000206000015461208b565b9050600061122d600d60008681526020019081526020016000206001015461208b565b9050600c828260405160200161124593929190613b1c565b60405160208183030381529060405292505050919050565b6103e881565b6000600d6000838152602001908152602001600020600001549050919050565b6000600560008473ffffffffffffffffffffffffffffffffffffffff1673ffffffffffffffffffffffffffffffffffffffff16815260200190815260200160002060008373ffffffffffffffffffffffffffffffffffffffff1673ffffffffffffffffffffffffffffffffffffffff16815260200190815260200160002060009054906101000a900460ff16905092915050565b600e826004811061132757600080fd5b60040201816004811061133957600080fd5b01600091509150505481565b61134d61158a565b73ffffffffffffffffffffffffffffffffffffffff1661136b6110b3565b73ffffffffffffffffffffffffffffffffffffffff16146113c1576040517f08c379a00000000000000000000000000000000000000000000000000000000081526004016113b890613727565b60405180910390fd5b600073ffffffffffffffffffffffffffffffffffffffff168173ffffffffffffffffffffffffffffffffffffffff1603611430576040517f08c379a000000000000000000000000000000000000000000000000000000000815260040161142790613be0565b60405180910390fd5b61143981611dfd565b50565b60007f80ac58cd000000000000000000000000000000000000000000000000000000007bffffffffffffffffffffffffffffffffffffffffffffffffffffffff1916827bffffffffffffffffffffffffffffffffffffffffffffffffffffffff1916148061150757507f5b5e139f000000000000000000000000000000000000000000000000000000007bffffffffffffffffffffffffffffffffffffffffffffffffffffffff1916827bffffffffffffffffffffffffffffffffffffffffffffffffffffffff1916145b806115175750611516826121eb565b5b9050919050565b60008073ffffffffffffffffffffffffffffffffffffffff166002600084815260200190815260200160002060009054906101000a900473ffffffffffffffffffffffffffffffffffffffff1673ffffffffffffffffffffffffffffffffffffffff1614159050919050565b600033905090565b816004600083815260200190815260200160002060006101000a81548173ffffffffffffffffffffffffffffffffffffffff021916908373ffffffffffffffffffffffffffffffffffffffff160217905550808273ffffffffffffffffffffffffffffffffffffffff1661160583610d91565b73ffffffffffffffffffffffffffffffffffffffff167f8c5be1e5ebec7d5bd14f71427d1e84f3dd0314c0f7b2291e5b200ac8c7c3b92560405160405180910390a45050565b61165361284e565b60006064848460405160200161166a929190613c69565b6040516020818303038152906040528051906020012060001c61168d9190613cc4565b905061169761284e565b600582101561172757600182036116c35760048160000181815250506001816020018181525050611722565b600282036116e65760048160000181815250506002816020018181525050611721565b600382036117095760048160000181815250506003816020018181525050611720565b600481600001818152505060048160200181815250505b5b5b6118d5565b600d8210156117ba57600782101561175457600381600001818152505060018160200181815250506117b5565b600982101561177857600381600001818152505060028160200181815250506117b4565b600b82101561179c57600381600001818152505060038160200181815250506117b3565b600381600001818152505060048160200181815250505b5b5b6118d4565b602582101561184d5760138210156117e75760028160000181815250506001816020018181525050611848565b601982101561180b5760028160000181815250506002816020018181525050611847565b601f82101561182f5760028160000181815250506003816020018181525050611846565b600281600001818152505060048160200181815250505b5b5b6118d3565b603482101561187157600181600001818152505060018160200181815250506118d2565b604482101561189557600181600001818152505060028160200181815250506118d1565b60548210156118b957600181600001818152505060038160200181815250506118d0565b600181600001818152505060048160200181815250505b5b5b5b5b5b809250505092915050565b600073ffffffffffffffffffffffffffffffffffffffff168273ffffffffffffffffffffffffffffffffffffffff160361194f576040517f08c379a000000000000000000000000000000000000000000000000000000000815260040161194690613d41565b60405180910390fd5b6119588161151e565b15611998576040517f08c379a000000000000000000000000000000000000000000000000000000000815260040161198f90613dad565b60405180910390fd5b6119a460008383612255565b6001600360008473ffffffffffffffffffffffffffffffffffffffff1673ffffffffffffffffffffffffffffffffffffffff16815260200190815260200160002060008282546119f49190613348565b92505081905550816002600083815260200190815260200160002060006101000a81548173ffffffffffffffffffffffffffffffffffffffff021916908373ffffffffffffffffffffffffffffffffffffffff160217905550808273ffffffffffffffffffffffffffffffffffffffff16600073ffffffffffffffffffffffffffffffffffffffff167fddf252ad1be2c89b69c2b068fc378daa952ba7f163c4a11628f55a4df523b3ef60405160405180910390a4611ab560008383612367565b5050565b6000611ac48261151e565b611b03576040517f08c379a0000000000000000000000000000000000000000000000000000000008152600401611afa90613e3f565b60405180910390fd5b6000611b0e83610d91565b90508073ffffffffffffffffffffffffffffffffffffffff168473ffffffffffffffffffffffffffffffffffffffff161480611b505750611b4f8185611283565b5b80611b8e57508373ffffffffffffffffffffffffffffffffffffffff16611b76846108d6565b73ffffffffffffffffffffffffffffffffffffffff16145b91505092915050565b8273ffffffffffffffffffffffffffffffffffffffff16611bb782610d91565b73ffffffffffffffffffffffffffffffffffffffff1614611c0d576040517f08c379a0000000000000000000000000000000000000000000000000000000008152600401611c0490613ed1565b60405180910390fd5b600073ffffffffffffffffffffffffffffffffffffffff168273ffffffffffffffffffffffffffffffffffffffff1603611c7c576040517f08c379a0000000000000000000000000000000000000000000000000000000008152600401611c7390613f63565b60405180910390fd5b611c87838383612255565b611c92600082611592565b6001600360008573ffffffffffffffffffffffffffffffffffffffff1673ffffffffffffffffffffffffffffffffffffffff1681526020019081526020016000206000828254611ce2919061339e565b925050819055506001600360008473ffffffffffffffffffffffffffffffffffffffff1673ffffffffffffffffffffffffffffffffffffffff1681526020019081526020016000206000828254611d399190613348565b92505081905550816002600083815260200190815260200160002060006101000a81548173ffffffffffffffffffffffffffffffffffffffff021916908373ffffffffffffffffffffffffffffffffffffffff160217905550808273ffffffffffffffffffffffffffffffffffffffff168473ffffffffffffffffffffffffffffffffffffffff167fddf252ad1be2c89b69c2b068fc378daa952ba7f163c4a11628f55a4df523b3ef60405160405180910390a4611df8838383612367565b505050565b6000600a60009054906101000a900473ffffffffffffffffffffffffffffffffffffffff16905081600a60006101000a81548173ffffffffffffffffffffffffffffffffffffffff021916908373ffffffffffffffffffffffffffffffffffffffff1602179055508173ffffffffffffffffffffffffffffffffffffffff168173ffffffffffffffffffffffffffffffffffffffff167f8be0079c531659141344cd1fd0a4f28419497f9722a3daafe3b4186f6b6457e060405160405180910390a35050565b8173ffffffffffffffffffffffffffffffffffffffff168373ffffffffffffffffffffffffffffffffffffffff1603611f31576040517f08c379a0000000000000000000000000000000000000000000000000000000008152600401611f2890613fcf565b60405180910390fd5b80600560008573ffffffffffffffffffffffffffffffffffffffff1673ffffffffffffffffffffffffffffffffffffffff16815260200190815260200160002060008473ffffffffffffffffffffffffffffffffffffffff1673ffffffffffffffffffffffffffffffffffffffff16815260200190815260200160002060006101000a81548160ff0219169083151502179055508173ffffffffffffffffffffffffffffffffffffffff168373ffffffffffffffffffffffffffffffffffffffff167f17307eab39ab6107e8899845ad3d59bd9653f200f220920489ca2b5937696c3183604051612022919061293e565b60405180910390a3505050565b61203a848484611b97565b6120468484848461236c565b612085576040517f08c379a000000000000000000000000000000000000000000000000000000000815260040161207c90614061565b60405180910390fd5b50505050565b6060600082036120d2576040518060400160405280600181526020017f300000000000000000000000000000000000000000000000000000000000000081525090506121e6565b600082905060005b600082146121045780806120ed90614081565b915050600a826120fd91906140c9565b91506120da565b60008167ffffffffffffffff8111156121205761211f612c1c565b5b6040519080825280601f01601f1916602001820160405280156121525781602001600182028036833780820191505090505b5090505b600085146121df5760018261216b919061339e565b9150600a8561217a9190613cc4565b60306121869190613348565b60f81b81838151811061219c5761219b6133d2565b5b60200101907effffffffffffffffffffffffffffffffffffffffffffffffffffffffffffff1916908160001a905350600a856121d891906140c9565b9450612156565b8093505050505b919050565b60007f01ffc9a7000000000000000000000000000000000000000000000000000000007bffffffffffffffffffffffffffffffffffffffffffffffffffffffff1916827bffffffffffffffffffffffffffffffffffffffffffffffffffffffff1916149050919050565b6122608383836124f3565b600073ffffffffffffffffffffffffffffffffffffffff168373ffffffffffffffffffffffffffffffffffffffff16036122a25761229d816124f8565b6122e1565b8173ffffffffffffffffffffffffffffffffffffffff168373ffffffffffffffffffffffffffffffffffffffff16146122e0576122df8382612541565b5b5b600073ffffffffffffffffffffffffffffffffffffffff168273ffffffffffffffffffffffffffffffffffffffff16036123235761231e816126ae565b612362565b8273ffffffffffffffffffffffffffffffffffffffff168273ffffffffffffffffffffffffffffffffffffffff161461236157612360828261277f565b5b5b505050565b505050565b600061238d8473ffffffffffffffffffffffffffffffffffffffff166127fe565b156124e6578373ffffffffffffffffffffffffffffffffffffffff1663150b7a026123b661158a565b8786866040518563ffffffff1660e01b81526004016123d8949392919061414f565b6020604051808303816000875af192505050801561241457506040513d601f19601f8201168201806040525081019061241191906141b0565b60015b612496573d8060008114612444576040519150601f19603f3d011682016040523d82523d6000602084013e612449565b606091505b50600081510361248e576040517f08c379a000000000000000000000000000000000000000000000000000000000815260040161248590614061565b60405180910390fd5b805181602001fd5b63150b7a0260e01b7bffffffffffffffffffffffffffffffffffffffffffffffffffffffff1916817bffffffffffffffffffffffffffffffffffffffffffffffffffffffff1916149150506124eb565b600190505b949350505050565b505050565b6008805490506009600083815260200190815260200160002081905550600881908060018154018082558091505060019003906000526020600020016000909190919091505550565b6000600161254e84610e42565b612558919061339e565b905060006007600084815260200190815260200160002054905081811461263d576000600660008673ffffffffffffffffffffffffffffffffffffffff1673ffffffffffffffffffffffffffffffffffffffff168152602001908152602001600020600084815260200190815260200160002054905080600660008773ffffffffffffffffffffffffffffffffffffffff1673ffffffffffffffffffffffffffffffffffffffff168152602001908152602001600020600084815260200190815260200160002081905550816007600083815260200190815260200160002081905550505b6007600084815260200190815260200160002060009055600660008573ffffffffffffffffffffffffffffffffffffffff1673ffffffffffffffffffffffffffffffffffffffff16815260200190815260200160002060008381526020019081526020016000206000905550505050565b600060016008805490506126c2919061339e565b90506000600960008481526020019081526020016000205490506000600883815481106126f2576126f16133d2565b5b906000526020600020015490508060088381548110612714576127136133d2565b5b906000526020600020018190555081600960008381526020019081526020016000208190555060096000858152602001908152602001600020600090556008805480612763576127626141dd565b5b6001900381819060005260206000200160009055905550505050565b600061278a83610e42565b905081600660008573ffffffffffffffffffffffffffffffffffffffff1673ffffffffffffffffffffffffffffffffffffffff168152602001908152602001600020600083815260200190815260200160002081905550806007600084815260200190815260200160002081905550505050565b6000808273ffffffffffffffffffffffffffffffffffffffff163b119050919050565b60405180608001604052806004905b612838612868565b8152602001906001900390816128305790505090565b604051806040016040528060008152602001600081525090565b6040518060800160405280600490602082028036833780820191505090505090565b6000604051905090565b600080fd5b600080fd5b60007fffffffff0000000000000000000000000000000000000000000000000000000082169050919050565b6128d38161289e565b81146128de57600080fd5b50565b6000813590506128f0816128ca565b92915050565b60006020828403121561290c5761290b612894565b5b600061291a848285016128e1565b91505092915050565b60008115159050919050565b61293881612923565b82525050565b6000602082019050612953600083018461292f565b92915050565b600081519050919050565b600082825260208201905092915050565b60005b83811015612993578082015181840152602081019050612978565b838111156129a2576000848401525b50505050565b6000601f19601f8301169050919050565b60006129c482612959565b6129ce8185612964565b93506129de818560208601612975565b6129e7816129a8565b840191505092915050565b60006020820190508181036000830152612a0c81846129b9565b905092915050565b6000819050919050565b612a2781612a14565b8114612a3257600080fd5b50565b600081359050612a4481612a1e565b92915050565b600060208284031215612a6057612a5f612894565b5b6000612a6e84828501612a35565b91505092915050565b600073ffffffffffffffffffffffffffffffffffffffff82169050919050565b6000612aa282612a77565b9050919050565b612ab281612a97565b82525050565b6000602082019050612acd6000830184612aa9565b92915050565b612adc81612a97565b8114612ae757600080fd5b50565b600081359050612af981612ad3565b92915050565b60008060408385031215612b1657612b15612894565b5b6000612b2485828601612aea565b9250506020612b3585828601612a35565b9150509250929050565b612b4881612a14565b82525050565b6000602082019050612b636000830184612b3f565b92915050565b6000604082019050612b7e6000830185612b3f565b612b8b6020830184612b3f565b9392505050565b600080600060608486031215612bab57612baa612894565b5b6000612bb986828701612aea565b9350506020612bca86828701612aea565b9250506040612bdb86828701612a35565b9150509250925092565b600060208284031215612bfb57612bfa612894565b5b6000612c0984828501612aea565b91505092915050565b600080fd5b600080fd5b7f4e487b7100000000000000000000000000000000000000000000000000000000600052604160045260246000fd5b612c54826129a8565b810181811067ffffffffffffffff82111715612c7357612c72612c1c565b5b80604052505050565b6000612c8661288a565b9050612c928282612c4b565b919050565b600067ffffffffffffffff821115612cb257612cb1612c1c565b5b612cbb826129a8565b9050602081019050919050565b82818337600083830152505050565b6000612cea612ce584612c97565b612c7c565b905082815260208101848484011115612d0657612d05612c17565b5b612d11848285612cc8565b509392505050565b600082601f830112612d2e57612d2d612c12565b5b8135612d3e848260208601612cd7565b91505092915050565b600060208284031215612d5d57612d5c612894565b5b600082013567ffffffffffffffff811115612d7b57612d7a612899565b5b612d8784828501612d19565b91505092915050565b600060049050919050565b600081905092915050565b6000819050919050565b600060049050919050565b600081905092915050565b6000819050919050565b612dd981612a14565b82525050565b6000612deb8383612dd0565b60208301905092915050565b6000602082019050919050565b612e0d81612db0565b612e178184612dbb565b9250612e2282612dc6565b8060005b83811015612e53578151612e3a8782612ddf565b9650612e4583612df7565b925050600181019050612e26565b505050505050565b6000612e678383612e04565b60808301905092915050565b6000602082019050919050565b612e8981612d90565b612e938184612d9b565b9250612e9e82612da6565b8060005b83811015612ecf578151612eb68782612e5b565b9650612ec183612e73565b925050600181019050612ea2565b505050505050565b600061020082019050612eed6000830184612e80565b92915050565b612efc81612923565b8114612f0757600080fd5b50565b600081359050612f1981612ef3565b92915050565b60008060408385031215612f3657612f35612894565b5b6000612f4485828601612aea565b9250506020612f5585828601612f0a565b9150509250929050565b600067ffffffffffffffff821115612f7a57612f79612c1c565b5b612f83826129a8565b9050602081019050919050565b6000612fa3612f9e84612f5f565b612c7c565b905082815260208101848484011115612fbf57612fbe612c17565b5b612fca848285612cc8565b509392505050565b600082601f830112612fe757612fe6612c12565b5b8135612ff7848260208601612f90565b91505092915050565b6000806000806080858703121561301a57613019612894565b5b600061302887828801612aea565b945050602061303987828801612aea565b935050604061304a87828801612a35565b925050606085013567ffffffffffffffff81111561306b5761306a612899565b5b61307787828801612fd2565b91505092959194509250565b6000806040838503121561309a57613099612894565b5b60006130a885828601612aea565b92505060206130b985828601612aea565b9150509250929050565b600080604083850312156130da576130d9612894565b5b60006130e885828601612a35565b92505060206130f985828601612a35565b9150509250929050565b7f4e487b7100000000000000000000000000000000000000000000000000000000600052602260045260246000fd5b6000600282049050600182168061314a57607f821691505b60208210810361315d5761315c613103565b5b50919050565b7f4552433732313a20617070726f76656420717565727920666f72206e6f6e657860008201527f697374656e7420746f6b656e0000000000000000000000000000000000000000602082015250565b60006131bf602c83612964565b91506131ca82613163565b604082019050919050565b600060208201905081810360008301526131ee816131b2565b9050919050565b7f4552433732313a20617070726f76616c20746f2063757272656e74206f776e6560008201527f7200000000000000000000000000000000000000000000000000000000000000602082015250565b6000613251602183612964565b915061325c826131f5565b604082019050919050565b6000602082019050818103600083015261328081613244565b9050919050565b7f4552433732313a20617070726f76652063616c6c6572206973206e6f74206f7760008201527f6e6572206e6f7220617070726f76656420666f7220616c6c0000000000000000602082015250565b60006132e3603883612964565b91506132ee82613287565b604082019050919050565b60006020820190508181036000830152613312816132d6565b9050919050565b7f4e487b7100000000000000000000000000000000000000000000000000000000600052601160045260246000fd5b600061335382612a14565b915061335e83612a14565b9250827fffffffffffffffffffffffffffffffffffffffffffffffffffffffffffffffff0382111561339357613392613319565b5b828201905092915050565b60006133a982612a14565b91506133b483612a14565b9250828210156133c7576133c6613319565b5b828203905092915050565b7f4e487b7100000000000000000000000000000000000000000000000000000000600052603260045260246000fd5b7f4552433732313a207472616e736665722063616c6c6572206973206e6f74206f60008201527f776e6572206e6f7220617070726f766564000000000000000000000000000000602082015250565b600061345d603183612964565b915061346882613401565b604082019050919050565b6000602082019050818103600083015261348c81613450565b9050919050565b7f455243373231456e756d657261626c653a206f776e657220696e646578206f7560008201527f74206f6620626f756e6473000000000000000000000000000000000000000000602082015250565b60006134ef602b83612964565b91506134fa82613493565b604082019050919050565b6000602082019050818103600083015261351e816134e2565b9050919050565b7f455243373231456e756d657261626c653a20676c6f62616c20696e646578206f60008201527f7574206f6620626f756e64730000000000000000000000000000000000000000602082015250565b6000613581602c83612964565b915061358c82613525565b604082019050919050565b600060208201905081810360008301526135b081613574565b9050919050565b7f4552433732313a206f776e657220717565727920666f72206e6f6e657869737460008201527f656e7420746f6b656e0000000000000000000000000000000000000000000000602082015250565b6000613613602983612964565b915061361e826135b7565b604082019050919050565b6000602082019050818103600083015261364281613606565b9050919050565b7f4552433732313a2062616c616e636520717565727920666f7220746865207a6560008201527f726f206164647265737300000000000000000000000000000000000000000000602082015250565b60006136a5602a83612964565b91506136b082613649565b604082019050919050565b600060208201905081810360008301526136d481613698565b9050919050565b7f4f776e61626c653a2063616c6c6572206973206e6f7420746865206f776e6572600082015250565b6000613711602083612964565b915061371c826136db565b602082019050919050565b6000602082019050818103600083015261374081613704565b9050919050565b60008190508160005260206000209050919050565b60006020601f8301049050919050565b600082821b905092915050565b6000600883026137a97fffffffffffffffffffffffffffffffffffffffffffffffffffffffffffffffff8261376c565b6137b3868361376c565b95508019841693508086168417925050509392505050565b6000819050919050565b60006137f06137eb6137e684612a14565b6137cb565b612a14565b9050919050565b6000819050919050565b61380a836137d5565b61381e613816826137f7565b848454613779565b825550505050565b600090565b613833613826565b61383e818484613801565b505050565b5b818110156138625761385760008261382b565b600181019050613844565b5050565b601f8211156138a75761387881613747565b6138818461375c565b81016020851015613890578190505b6138a461389c8561375c565b830182613843565b50505b505050565b600082821c905092915050565b60006138ca600019846008026138ac565b1980831691505092915050565b60006138e383836138b9565b9150826002028217905092915050565b6138fc82612959565b67ffffffffffffffff81111561391557613914612c1c565b5b61391f8254613132565b61392a828285613866565b600060209050601f83116001811461395d576000841561394b578287015190505b61395585826138d7565b8655506139bd565b601f19841661396b86613747565b60005b828110156139935784890151825560018201915060208501945060208101905061396e565b868310156139b057848901516139ac601f8916826138b9565b8355505b6001600288020188555050505b505050505050565b600081905092915050565b600081546139dd81613132565b6139e781866139c5565b94506001821660008114613a025760018114613a1757613a4a565b60ff1983168652811515820286019350613a4a565b613a2085613747565b60005b83811015613a4257815481890152600182019150602081019050613a23565b838801955050505b50505092915050565b7f2f00000000000000000000000000000000000000000000000000000000000000600082015250565b6000613a896001836139c5565b9150613a9482613a53565b600182019050919050565b6000613aaa82612959565b613ab481856139c5565b9350613ac4818560208601612975565b80840191505092915050565b7f2e6a736f6e000000000000000000000000000000000000000000000000000000600082015250565b6000613b066005836139c5565b9150613b1182613ad0565b600582019050919050565b6000613b2882866139d0565b9150613b3382613a7c565b9150613b3f8285613a9f565b9150613b4a82613a7c565b9150613b568284613a9f565b9150613b6182613af9565b9150819050949350505050565b7f4f776e61626c653a206e6577206f776e657220697320746865207a65726f206160008201527f6464726573730000000000000000000000000000000000000000000000000000602082015250565b6000613bca602683612964565b9150613bd582613b6e565b604082019050919050565b60006020820190508181036000830152613bf981613bbd565b9050919050565b60008160601b9050919050565b6000613c1882613c00565b9050919050565b6000613c2a82613c0d565b9050919050565b613c42613c3d82612a97565b613c1f565b82525050565b6000819050919050565b613c63613c5e82612a14565b613c48565b82525050565b6000613c758285613c31565b601482019150613c858284613c52565b6020820191508190509392505050565b7f4e487b7100000000000000000000000000000000000000000000000000000000600052601260045260246000fd5b6000613ccf82612a14565b9150613cda83612a14565b925082613cea57613ce9613c95565b5b828206905092915050565b7f4552433732313a206d696e7420746f20746865207a65726f2061646472657373600082015250565b6000613d2b602083612964565b9150613d3682613cf5565b602082019050919050565b60006020820190508181036000830152613d5a81613d1e565b9050919050565b7f4552433732313a20746f6b656e20616c7265616479206d696e74656400000000600082015250565b6000613d97601c83612964565b9150613da282613d61565b602082019050919050565b60006020820190508181036000830152613dc681613d8a565b9050919050565b7f4552433732313a206f70657261746f7220717565727920666f72206e6f6e657860008201527f697374656e7420746f6b656e0000000000000000000000000000000000000000602082015250565b6000613e29602c83612964565b9150613e3482613dcd565b604082019050919050565b60006020820190508181036000830152613e5881613e1c565b9050919050565b7f4552433732313a207472616e736665722066726f6d20696e636f72726563742060008201527f6f776e6572000000000000000000000000000000000000000000000000000000602082015250565b6000613ebb602583612964565b9150613ec682613e5f565b604082019050919050565b60006020820190508181036000830152613eea81613eae565b9050919050565b7f4552433732313a207472616e7366657220746f20746865207a65726f2061646460008201527f7265737300000000000000000000000000000000000000000000000000000000602082015250565b6000613f4d602483612964565b9150613f5882613ef1565b604082019050919050565b60006020820190508181036000830152613f7c81613f40565b9050919050565b7f4552433732313a20617070726f766520746f2063616c6c657200000000000000600082015250565b6000613fb9601983612964565b9150613fc482613f83565b602082019050919050565b60006020820190508181036000830152613fe881613fac565b9050919050565b7f4552433732313a207472616e7366657220746f206e6f6e20455243373231526560008201527f63656976657220696d706c656d656e7465720000000000000000000000000000602082015250565b600061404b603283612964565b915061405682613fef565b604082019050919050565b6000602082019050818103600083015261407a8161403e565b9050919050565b600061408c82612a14565b91507fffffffffffffffffffffffffffffffffffffffffffffffffffffffffffffffff82036140be576140bd613319565b5b600182019050919050565b60006140d482612a14565b91506140df83612a14565b9250826140ef576140ee613c95565b5b828204905092915050565b600081519050919050565b600082825260208201905092915050565b6000614121826140fa565b61412b8185614105565b935061413b818560208601612975565b614144816129a8565b840191505092915050565b60006080820190506141646000830187612aa9565b6141716020830186612aa9565b61417e6040830185612b3f565b81810360608301526141908184614116565b905095945050505050565b6000815190506141aa816128ca565b92915050565b6000602082840312156141c6576141c5612894565b5b60006141d48482850161419b565b91505092915050565b7f4e487b7100000000000000000000000000000000000000000000000000000000600052603160045260246000fdfea26469706673582212203503bafb911c6c601138015f53fc72b8ac228cb477ca2573c072b2d51c36a0a164736f6c634300080f0033",
  "immutableReferences": {},
  "source": "// SPDX-License-Identifier: MIT\r\n\r\npragma solidity ^0.8.15;\r\n\r\nimport \"./node_modules/openzeppelin-solidity/contracts/token/ERC721/extensions/ERC721Enumerable.sol\";\r\nimport \"./node_modules/openzeppelin-solidity/contracts/access/Ownable.sol\";\r\nimport \"./node_modules/openzeppelin-solidity/contracts/utils/Strings.sol\";\r\n\r\ncontract ChanToken is ERC721Enumerable, Ownable {\r\n    uint constant public MAX_TOKEN_COUNT = 1000;\r\n    uint public mint_price = 1 ether;\r\n    string public metadataURI;\r\n    // 6 1000000000000\r\n    // 0x7E421117F214658D1ba4F3c8DE34ACa085876b70   CA\r\n    // 0xCA0Ee2E43C1BE189BE076AF777C44E6633746473 ChanToken CA\r\n    // https://gateway.pinata.cloud/ipfs/QmUsEKtVS5Gn4rZWbYfD7D4qLLKPf1YbsBWYaSqtmCPBzf\r\n\r\n    constructor(string memory _name, string memory _symbol, string memory _metadataURI) ERC721(_name, _symbol){\r\n        metadataURI = _metadataURI;\r\n    }\r\n\r\n    struct TokenData {\r\n        uint Rank;\r\n        uint Type;\r\n    }\r\n\r\n    mapping(uint => TokenData) public TokenDatas; // uint -> tokenId\r\n    uint[4][4] public tokenCount;\r\n\r\n    function mintToken() public payable {//   \r\n        require(msg.value >= mint_price);\r\n        require(MAX_TOKEN_COUNT > totalSupply());\r\n\r\n        uint tokenId = totalSupply() + 1;\r\n        // tokenId  Rank, type  .\r\n\r\n        TokenDatas[tokenId] = getRandomNum(msg.sender, tokenId);\r\n        tokenCount[TokenDatas[tokenId].Rank-1][TokenDatas[tokenId].Type-1] += 1;\r\n    \r\n        payable(Ownable.owner()).transfer(msg.value); //   owner \r\n        _mint(msg.sender, tokenId);\r\n    } \r\n\r\n    function tokenURI(uint _tokenId) public override view returns(string memory) {\r\n        // tokenId   rank, type  url return .\r\n        // return http://localhost:3000/metadata/1/4.json\r\n        // ipfs :     -> \r\n        // uint Rank = TokenDatas[_tokenId].Rank;\r\n        // uint Type = TokenDatas[_tokenId].Type;\r\n        string memory Rank = Strings.toString(TokenDatas[_tokenId].Rank);\r\n        string memory Type = Strings.toString(TokenDatas[_tokenId].Type);\r\n        // return \"http://localhost:3000/medatdata/\"+Rank+\"/\"+Type+\".json\"; //  . Rank,Type uint  string  \r\n                                                                         //  return    .     string  \r\n                                                                         //      Strings.sol\r\n        return string(abi.encodePacked(metadataURI,\"/\",Rank,\"/\",Type,\".json\"));\r\n    }\r\n\r\n    function getRandomNum(address _owner, uint _tokenId) private pure returns(TokenData memory ) {\r\n        // Random\r\n        // abi.encodePacked(_owner, tokenId); ->    method _owner tokenId   .   \r\n        // abi.encodePacked()      \r\n        uint randomNum = uint(keccak256(abi.encodePacked(_owner, _tokenId)))%100; // 16  32byte     2  \r\n\r\n        TokenData memory data; // memory         .\r\n        /**\r\n        {\r\n            Rank:uint,\r\n            Type:uint\r\n        }\r\n        \r\n         */\r\n\r\n         if (randomNum < 5) {\r\n            if (randomNum == 1) {\r\n                data.Rank = 4;\r\n                data.Type = 1;\r\n            } else if (randomNum == 2) {\r\n                data.Rank = 4;\r\n                data.Type = 2;\r\n            } else if (randomNum == 3) {\r\n                data.Rank = 4;\r\n                data.Type = 3;\r\n            } else {\r\n                data.Rank = 4;\r\n                data.Type = 4;\r\n            }\r\n        } else if (randomNum < 13) {\r\n            if (randomNum < 7) {\r\n                data.Rank = 3;\r\n                data.Type = 1;\r\n            } else if (randomNum < 9) {\r\n                data.Rank = 3;\r\n                data.Type = 2;\r\n            } else if (randomNum < 11) {\r\n                data.Rank = 3;\r\n                data.Type = 3;\r\n            } else {\r\n                data.Rank = 3;\r\n                data.Type = 4;\r\n            }\r\n        } else if (randomNum < 37) {\r\n            if (randomNum < 19) {\r\n                data.Rank = 2;\r\n                data.Type = 1;\r\n            } else if (randomNum < 25) {\r\n                data.Rank = 2;\r\n                data.Type = 2;\r\n            } else if (randomNum < 31) {\r\n                data.Rank = 2;\r\n                data.Type = 3;\r\n            } else {\r\n                data.Rank = 2;\r\n                data.Type = 4;\r\n            }\r\n        } else {\r\n            if (randomNum < 52) {\r\n                data.Rank = 1;\r\n                data.Type = 1;\r\n            } else if (randomNum < 68) {\r\n                data.Rank = 1;\r\n                data.Type = 2;\r\n            } else if (randomNum < 84) {\r\n                data.Rank = 1;\r\n                data.Type = 3;\r\n            } else {\r\n                data.Rank = 1;\r\n                data.Type = 4;\r\n            }\r\n        }\r\n        return data;\r\n    }\r\n    \r\n    function setMetadataURI(string memory _uri) public onlyOwner { // onlyOwner =>    . \r\n        metadataURI = _uri;\r\n    }\r\n\r\n    function getTokenRank(uint _tokenId) public view returns(uint) {\r\n        return TokenDatas[_tokenId].Rank;\r\n    }\r\n\r\n    function getTokenType(uint _tokenId) public view returns(uint) {\r\n        return TokenDatas[_tokenId].Type;\r\n    }\r\n\r\n    function getTokenCount() public view returns(uint[4][4] memory) {\r\n        return tokenCount;\r\n    }\r\n\r\n}",
  "sourcePath": "/home/juchan/workspace/220727/truffle/contracts/ChanToken.sol",
  "compiler": {
    "name": "solc",
    "version": "0.8.15+commit.e14f2714.Emscripten.clang"
  },
  "schemaVersion": "3.4.8",
  "updatedAt": "2022-07-29T00:23:40.390Z",
  "networkType": "ethereum",
  "devdoc": {
    "kind": "dev",
    "methods": {
      "approve(address,uint256)": {
        "details": "See {IERC721-approve}."
      },
      "balanceOf(address)": {
        "details": "See {IERC721-balanceOf}."
      },
      "getApproved(uint256)": {
        "details": "See {IERC721-getApproved}."
      },
      "isApprovedForAll(address,address)": {
        "details": "See {IERC721-isApprovedForAll}."
      },
      "name()": {
        "details": "See {IERC721Metadata-name}."
      },
      "owner()": {
        "details": "Returns the address of the current owner."
      },
      "ownerOf(uint256)": {
        "details": "See {IERC721-ownerOf}."
      },
      "renounceOwnership()": {
        "details": "Leaves the contract without owner. It will not be possible to call `onlyOwner` functions anymore. Can only be called by the current owner. NOTE: Renouncing ownership will leave the contract without an owner, thereby removing any functionality that is only available to the owner."
      },
      "safeTransferFrom(address,address,uint256)": {
        "details": "See {IERC721-safeTransferFrom}."
      },
      "safeTransferFrom(address,address,uint256,bytes)": {
        "details": "See {IERC721-safeTransferFrom}."
      },
      "setApprovalForAll(address,bool)": {
        "details": "See {IERC721-setApprovalForAll}."
      },
      "supportsInterface(bytes4)": {
        "details": "See {IERC165-supportsInterface}."
      },
      "symbol()": {
        "details": "See {IERC721Metadata-symbol}."
      },
      "tokenByIndex(uint256)": {
        "details": "See {IERC721Enumerable-tokenByIndex}."
      },
      "tokenOfOwnerByIndex(address,uint256)": {
        "details": "See {IERC721Enumerable-tokenOfOwnerByIndex}."
      },
      "totalSupply()": {
        "details": "See {IERC721Enumerable-totalSupply}."
      },
      "transferFrom(address,address,uint256)": {
        "details": "See {IERC721-transferFrom}."
      },
      "transferOwnership(address)": {
        "details": "Transfers ownership of the contract to a new account (`newOwner`). Can only be called by the current owner."
      }
    },
    "version": 1
  },
  "userdoc": {
    "kind": "user",
    "methods": {},
    "version": 1
  }
}