{
  "contractName": "SaleToken",
  "abi": [
    {
      "inputs": [
        {
          "internalType": "address",
          "name": "_tokenAddress",
          "type": "address"
        }
      ],
      "stateMutability": "nonpayable",
      "type": "constructor"
    },
    {
      "inputs": [
        {
          "internalType": "uint256",
          "name": "",
          "type": "uint256"
        }
      ],
      "name": "SaleTokenList",
      "outputs": [
        {
          "internalType": "uint256",
          "name": "",
          "type": "uint256"
        }
      ],
      "stateMutability": "view",
      "type": "function",
      "constant": true
    },
    {
      "inputs": [],
      "name": "Token",
      "outputs": [
        {
          "internalType": "contract ChanToken",
          "name": "",
          "type": "address"
        }
      ],
      "stateMutability": "view",
      "type": "function",
      "constant": true
    },
    {
      "inputs": [
        {
          "internalType": "uint256",
          "name": "",
          "type": "uint256"
        }
      ],
      "name": "tokenPrices",
      "outputs": [
        {
          "internalType": "uint256",
          "name": "",
          "type": "uint256"
        }
      ],
      "stateMutability": "view",
      "type": "function",
      "constant": true
    },
    {
      "inputs": [
        {
          "internalType": "uint256",
          "name": "_tokenId",
          "type": "uint256"
        },
        {
          "internalType": "uint256",
          "name": "_price",
          "type": "uint256"
        }
      ],
      "name": "SalesToken",
      "outputs": [],
      "stateMutability": "nonpayable",
      "type": "function"
    },
    {
      "inputs": [
        {
          "internalType": "uint256",
          "name": "_tokenId",
          "type": "uint256"
        }
      ],
      "name": "PurchaseToken",
      "outputs": [],
      "stateMutability": "payable",
      "type": "function",
      "payable": true
    },
    {
      "inputs": [
        {
          "internalType": "uint256",
          "name": "_tokenId",
          "type": "uint256"
        }
      ],
      "name": "cancelSaleToken",
      "outputs": [],
      "stateMutability": "nonpayable",
      "type": "function"
    },
    {
      "inputs": [],
      "name": "getSaleTokenList",
      "outputs": [
        {
          "components": [
            {
              "internalType": "uint256",
              "name": "tokenId",
              "type": "uint256"
            },
            {
              "internalType": "uint256",
              "name": "Rank",
              "type": "uint256"
            },
            {
              "internalType": "uint256",
              "name": "Type",
              "type": "uint256"
            },
            {
              "internalType": "uint256",
              "name": "price",
              "type": "uint256"
            }
          ],
          "internalType": "struct SaleToken.TokenInfo[]",
          "name": "",
          "type": "tuple[]"
        }
      ],
      "stateMutability": "view",
      "type": "function",
      "constant": true
    },
    {
      "inputs": [
        {
          "internalType": "address",
          "name": "_tokenOwner",
          "type": "address"
        }
      ],
      "name": "getOwnerTokens",
      "outputs": [
        {
          "components": [
            {
              "internalType": "uint256",
              "name": "tokenId",
              "type": "uint256"
            },
            {
              "internalType": "uint256",
              "name": "Rank",
              "type": "uint256"
            },
            {
              "internalType": "uint256",
              "name": "Type",
              "type": "uint256"
            },
            {
              "internalType": "uint256",
              "name": "price",
              "type": "uint256"
            }
          ],
          "internalType": "struct SaleToken.TokenInfo[]",
          "name": "",
          "type": "tuple[]"
        }
      ],
      "stateMutability": "view",
      "type": "function",
      "constant": true
    },
    {
      "inputs": [
        {
          "internalType": "address",
          "name": "_tokenOwner",
          "type": "address"
        }
      ],
      "name": "getlatestToken",
      "outputs": [
        {
          "components": [
            {
              "internalType": "uint256",
              "name": "tokenId",
              "type": "uint256"
            },
            {
              "internalType": "uint256",
              "name": "Rank",
              "type": "uint256"
            },
            {
              "internalType": "uint256",
              "name": "Type",
              "type": "uint256"
            },
            {
              "internalType": "uint256",
              "name": "price",
              "type": "uint256"
            }
          ],
          "internalType": "struct SaleToken.TokenInfo",
          "name": "",
          "type": "tuple"
        }
      ],
      "stateMutability": "view",
      "type": "function",
      "constant": true
    }
  ],
  "bytecode": "0x60806040523480156200001157600080fd5b50604051620019a3380380620019a38339818101604052810190620000379190620000e8565b806000806101000a81548173ffffffffffffffffffffffffffffffffffffffff021916908373ffffffffffffffffffffffffffffffffffffffff160217905550506200011a565b600080fd5b600073ffffffffffffffffffffffffffffffffffffffff82169050919050565b6000620000b08262000083565b9050919050565b620000c281620000a3565b8114620000ce57600080fd5b50565b600081519050620000e281620000b7565b92915050565b6000602082840312156200010157620001006200007e565b5b60006200011184828501620000d1565b91505092915050565b611879806200012a6000396000f3fe6080604052600436106100865760003560e01c80634e4dc988116100595780634e4dc9881461014a578063921e033b14610175578063c24126761461019e578063d63d4af0146101c9578063e5afe3e61461020657610086565b80630c8cc5691461008b5780631899ca99146100c85780631fba7dbc146100f15780633048f5121461012e575b600080fd5b34801561009757600080fd5b506100b260048036038101906100ad91906111b1565b610243565b6040516100bf91906111ed565b60405180910390f35b3480156100d457600080fd5b506100ef60048036038101906100ea91906111b1565b610267565b005b3480156100fd57600080fd5b5061011860048036038101906101139190611266565b610385565b60405161012591906112f7565b60405180910390f35b610148600480360381019061014391906111b1565b61065c565b005b34801561015657600080fd5b5061015f610870565b60405161016c9190611416565b60405180910390f35b34801561018157600080fd5b5061019c60048036038101906101979190611438565b610ac8565b005b3480156101aa57600080fd5b506101b3610ccd565b6040516101c091906114d7565b60405180910390f35b3480156101d557600080fd5b506101f060048036038101906101eb9190611266565b610cf1565b6040516101fd9190611416565b60405180910390f35b34801561021257600080fd5b5061022d600480360381019061022891906111b1565b61105a565b60405161023a91906111ed565b60405180910390f35b6002818154811061025357600080fd5b906000526020600020016000915090505481565b60008060009054906101000a900473ffffffffffffffffffffffffffffffffffffffff1673ffffffffffffffffffffffffffffffffffffffff16636352211e836040518263ffffffff1660e01b81526004016102c391906111ed565b602060405180830381865afa1580156102e0573d6000803e3d6000fd5b505050506040513d601f19601f820116820180604052508101906103049190611507565b90503373ffffffffffffffffffffffffffffffffffffffff168173ffffffffffffffffffffffffffffffffffffffff161461033e57600080fd5b600060016000848152602001908152602001600020541161035e57600080fd5b6000600160008481526020019081526020016000208190555061038082611072565b505050565b61038d61114e565b60008060009054906101000a900473ffffffffffffffffffffffffffffffffffffffff1673ffffffffffffffffffffffffffffffffffffffff166370a08231846040518263ffffffff1660e01b81526004016103e99190611543565b602060405180830381865afa158015610406573d6000803e3d6000fd5b505050506040513d601f19601f8201168201806040525081019061042a9190611573565b905060008060009054906101000a900473ffffffffffffffffffffffffffffffffffffffff1673ffffffffffffffffffffffffffffffffffffffff16632f745c598560018561047991906115cf565b6040518363ffffffff1660e01b8152600401610496929190611603565b602060405180830381865afa1580156104b3573d6000803e3d6000fd5b505050506040513d601f19601f820116820180604052508101906104d79190611573565b905060008060009054906101000a900473ffffffffffffffffffffffffffffffffffffffff1673ffffffffffffffffffffffffffffffffffffffff1663d9f33c14836040518263ffffffff1660e01b815260040161053591906111ed565b602060405180830381865afa158015610552573d6000803e3d6000fd5b505050506040513d601f19601f820116820180604052508101906105769190611573565b905060008060009054906101000a900473ffffffffffffffffffffffffffffffffffffffff1673ffffffffffffffffffffffffffffffffffffffff166376aed2e1846040518263ffffffff1660e01b81526004016105d491906111ed565b602060405180830381865afa1580156105f1573d6000803e3d6000fd5b505050506040513d601f19601f820116820180604052508101906106159190611573565b905060006001600085815260200190815260200160002054905060405180608001604052808581526020018481526020018381526020018281525095505050505050919050565b60008060009054906101000a900473ffffffffffffffffffffffffffffffffffffffff1673ffffffffffffffffffffffffffffffffffffffff16636352211e836040518263ffffffff1660e01b81526004016106b891906111ed565b602060405180830381865afa1580156106d5573d6000803e3d6000fd5b505050506040513d601f19601f820116820180604052508101906106f99190611507565b90503373ffffffffffffffffffffffffffffffffffffffff168173ffffffffffffffffffffffffffffffffffffffff160361073357600080fd5b600060016000848152602001908152602001600020541161075357600080fd5b346001600084815260200190815260200160002054111561077357600080fd5b8073ffffffffffffffffffffffffffffffffffffffff166108fc349081150290604051600060405180830381858888f193505050501580156107b9573d6000803e3d6000fd5b5060008054906101000a900473ffffffffffffffffffffffffffffffffffffffff1673ffffffffffffffffffffffffffffffffffffffff166323b872dd8233856040518463ffffffff1660e01b81526004016108179392919061162c565b600060405180830381600087803b15801561083157600080fd5b505af1158015610845573d6000803e3d6000fd5b505050506000600160008481526020019081526020016000208190555061086b82611072565b505050565b606060006002805490501161088457600080fd5b600060028054905067ffffffffffffffff8111156108a5576108a4611663565b5b6040519080825280602002602001820160405280156108de57816020015b6108cb61114e565b8152602001906001900390816108c35790505b50905060005b600280549050811015610ac05760006002828154811061090757610906611692565b5b9060005260206000200154905060008060009054906101000a900473ffffffffffffffffffffffffffffffffffffffff1673ffffffffffffffffffffffffffffffffffffffff1663d9f33c14836040518263ffffffff1660e01b815260040161097091906111ed565b602060405180830381865afa15801561098d573d6000803e3d6000fd5b505050506040513d601f19601f820116820180604052508101906109b19190611573565b905060008060009054906101000a900473ffffffffffffffffffffffffffffffffffffffff1673ffffffffffffffffffffffffffffffffffffffff166376aed2e1846040518263ffffffff1660e01b8152600401610a0f91906111ed565b602060405180830381865afa158015610a2c573d6000803e3d6000fd5b505050506040513d601f19601f82011682018060405250810190610a509190611573565b9050600060016000858152602001908152602001600020549050604051806080016040528085815260200184815260200183815260200182815250868681518110610a9e57610a9d611692565b5b6020026020010181905250505050508080610ab8906116c1565b9150506108e4565b508091505090565b60008060009054906101000a900473ffffffffffffffffffffffffffffffffffffffff1673ffffffffffffffffffffffffffffffffffffffff16636352211e846040518263ffffffff1660e01b8152600401610b2491906111ed565b602060405180830381865afa158015610b41573d6000803e3d6000fd5b505050506040513d601f19601f82011682018060405250810190610b659190611507565b90503373ffffffffffffffffffffffffffffffffffffffff168173ffffffffffffffffffffffffffffffffffffffff1614610b9f57600080fd5b60008211610bac57600080fd5b60008054906101000a900473ffffffffffffffffffffffffffffffffffffffff1673ffffffffffffffffffffffffffffffffffffffff1663e985e9c533306040518363ffffffff1660e01b8152600401610c07929190611709565b602060405180830381865afa158015610c24573d6000803e3d6000fd5b505050506040513d601f19601f82011682018060405250810190610c48919061176a565b610c87576040517f08c379a0000000000000000000000000000000000000000000000000000000008152600401610c7e906117f4565b60405180910390fd5b8160016000858152602001908152602001600020819055506002839080600181540180825580915050600190039060005260206000200160009091909190915055505050565b60008054906101000a900473ffffffffffffffffffffffffffffffffffffffff1681565b606060008060009054906101000a900473ffffffffffffffffffffffffffffffffffffffff1673ffffffffffffffffffffffffffffffffffffffff166370a08231846040518263ffffffff1660e01b8152600401610d4f9190611543565b602060405180830381865afa158015610d6c573d6000803e3d6000fd5b505050506040513d601f19601f82011682018060405250810190610d909190611573565b905060008103610d9f57600080fd5b60008167ffffffffffffffff811115610dbb57610dba611663565b5b604051908082528060200260200182016040528015610df457816020015b610de161114e565b815260200190600190039081610dd95790505b50905060005b8281101561104f5760008060009054906101000a900473ffffffffffffffffffffffffffffffffffffffff1673ffffffffffffffffffffffffffffffffffffffff16632f745c5987846040518363ffffffff1660e01b8152600401610e60929190611603565b602060405180830381865afa158015610e7d573d6000803e3d6000fd5b505050506040513d601f19601f82011682018060405250810190610ea19190611573565b905060008060009054906101000a900473ffffffffffffffffffffffffffffffffffffffff1673ffffffffffffffffffffffffffffffffffffffff1663d9f33c14836040518263ffffffff1660e01b8152600401610eff91906111ed565b602060405180830381865afa158015610f1c573d6000803e3d6000fd5b505050506040513d601f19601f82011682018060405250810190610f409190611573565b905060008060009054906101000a900473ffffffffffffffffffffffffffffffffffffffff1673ffffffffffffffffffffffffffffffffffffffff166376aed2e1846040518263ffffffff1660e01b8152600401610f9e91906111ed565b602060405180830381865afa158015610fbb573d6000803e3d6000fd5b505050506040513d601f19601f82011682018060405250810190610fdf9190611573565b905060006001600085815260200190815260200160002054905060405180608001604052808581526020018481526020018381526020018281525086868151811061102d5761102c611692565b5b6020026020010181905250505050508080611047906116c1565b915050610dfa565b508092505050919050565b60016020528060005260406000206000915090505481565b600080600090505b60028054905081101561114357826002828154811061109c5761109b611692565b5b90600052602060002001540361113057600260016002805490506110c091906115cf565b815481106110d1576110d0611692565b5b9060005260206000200154600282815481106110f0576110ef611692565b5b906000526020600020018190555060028054806111105761110f611814565b5b600190038181906000526020600020016000905590556001915050611149565b808061113b906116c1565b91505061107a565b50600090505b919050565b6040518060800160405280600081526020016000815260200160008152602001600081525090565b600080fd5b6000819050919050565b61118e8161117b565b811461119957600080fd5b50565b6000813590506111ab81611185565b92915050565b6000602082840312156111c7576111c6611176565b5b60006111d58482850161119c565b91505092915050565b6111e78161117b565b82525050565b600060208201905061120260008301846111de565b92915050565b600073ffffffffffffffffffffffffffffffffffffffff82169050919050565b600061123382611208565b9050919050565b61124381611228565b811461124e57600080fd5b50565b6000813590506112608161123a565b92915050565b60006020828403121561127c5761127b611176565b5b600061128a84828501611251565b91505092915050565b61129c8161117b565b82525050565b6080820160008201516112b86000850182611293565b5060208201516112cb6020850182611293565b5060408201516112de6040850182611293565b5060608201516112f16060850182611293565b50505050565b600060808201905061130c60008301846112a2565b92915050565b600081519050919050565b600082825260208201905092915050565b6000819050602082019050919050565b6080820160008201516113546000850182611293565b5060208201516113676020850182611293565b50604082015161137a6040850182611293565b50606082015161138d6060850182611293565b50505050565b600061139f838361133e565b60808301905092915050565b6000602082019050919050565b60006113c382611312565b6113cd818561131d565b93506113d88361132e565b8060005b838110156114095781516113f08882611393565b97506113fb836113ab565b9250506001810190506113dc565b5085935050505092915050565b6000602082019050818103600083015261143081846113b8565b905092915050565b6000806040838503121561144f5761144e611176565b5b600061145d8582860161119c565b925050602061146e8582860161119c565b9150509250929050565b6000819050919050565b600061149d61149861149384611208565b611478565b611208565b9050919050565b60006114af82611482565b9050919050565b60006114c1826114a4565b9050919050565b6114d1816114b6565b82525050565b60006020820190506114ec60008301846114c8565b92915050565b6000815190506115018161123a565b92915050565b60006020828403121561151d5761151c611176565b5b600061152b848285016114f2565b91505092915050565b61153d81611228565b82525050565b60006020820190506115586000830184611534565b92915050565b60008151905061156d81611185565b92915050565b60006020828403121561158957611588611176565b5b60006115978482850161155e565b91505092915050565b7f4e487b7100000000000000000000000000000000000000000000000000000000600052601160045260246000fd5b60006115da8261117b565b91506115e58361117b565b9250828210156115f8576115f76115a0565b5b828203905092915050565b60006040820190506116186000830185611534565b61162560208301846111de565b9392505050565b60006060820190506116416000830186611534565b61164e6020830185611534565b61165b60408301846111de565b949350505050565b7f4e487b7100000000000000000000000000000000000000000000000000000000600052604160045260246000fd5b7f4e487b7100000000000000000000000000000000000000000000000000000000600052603260045260246000fd5b60006116cc8261117b565b91507fffffffffffffffffffffffffffffffffffffffffffffffffffffffffffffffff82036116fe576116fd6115a0565b5b600182019050919050565b600060408201905061171e6000830185611534565b61172b6020830184611534565b9392505050565b60008115159050919050565b61174781611732565b811461175257600080fd5b50565b6000815190506117648161173e565b92915050565b6000602082840312156117805761177f611176565b5b600061178e84828501611755565b91505092915050565b600082825260208201905092915050565b7f4572726f723a2031323331333132000000000000000000000000000000000000600082015250565b60006117de600e83611797565b91506117e9826117a8565b602082019050919050565b6000602082019050818103600083015261180d816117d1565b9050919050565b7f4e487b7100000000000000000000000000000000000000000000000000000000600052603160045260246000fdfea2646970667358221220c73207a420920c932865703ad0a746d35159b62beb1735f829200355b71c6f9a64736f6c634300080f0033",
  "immutableReferences": {},
  "source": "// SPDX-License-Identifier: MIT\r\npragma solidity ^0.8.15;\r\n\r\nimport \"./ChanToken.sol\";\r\n\r\ncontract SaleToken {\r\n    ChanToken public Token;\r\n\r\n    constructor(address _tokenAddress){\r\n        Token = ChanToken(_tokenAddress);\r\n    }\r\n\r\n    struct TokenInfo {\r\n        uint tokenId;\r\n        uint Rank;\r\n        uint Type;\r\n        uint price;\r\n    }\r\n\r\n    //   \r\n    mapping(uint => uint) public tokenPrices; \r\n    //   \r\n    uint[] public SaleTokenList;\r\n\r\n    //     :   , \r\n    function SalesToken(uint _tokenId, uint _price) public {\r\n        address tokenOwner = Token.ownerOf(_tokenId); //   \r\n\r\n        require(tokenOwner == msg.sender);\r\n        require(_price > 0);\r\n        // Opensea isapprovedForAll :  CA(contract address) token Owner    \r\n        require(Token.isApprovedForAll(msg.sender, address(this)), \"Error: 1231312\");\r\n\r\n        tokenPrices[_tokenId] = _price;\r\n        SaleTokenList.push(_tokenId);\r\n    }\r\n\r\n    //   -> CA ->   :  CA tokenId    CA     .\r\n    function PurchaseToken(uint _tokenId) public payable {\r\n        address tokenOwner = Token.ownerOf(_tokenId);\r\n        require(tokenOwner != msg.sender);\r\n        require(tokenPrices[_tokenId] > 0); //    tokenId   \r\n        require(tokenPrices[_tokenId] <= msg.value);\r\n\r\n        payable(tokenOwner).transfer(msg.value);\r\n\r\n        //    CA  \r\n        Token.transferFrom(tokenOwner, msg.sender, _tokenId);\r\n        tokenPrices[_tokenId] = 0;\r\n        popSaleToken(_tokenId);\r\n    }\r\n    \r\n    function cancelSaleToken(uint _tokenId) public {\r\n        address tokenOwner = Token.ownerOf(_tokenId);\r\n        require(tokenOwner == msg.sender);\r\n        require(tokenPrices[_tokenId] > 0);\r\n\r\n        tokenPrices[_tokenId] = 0;\r\n        popSaleToken(_tokenId);\r\n    }\r\n\r\n\r\n    function popSaleToken(uint _tokenId) private returns(bool){\r\n        for(uint i = 0; i < SaleTokenList.length; i++){\r\n            if (SaleTokenList[i] == _tokenId) {\r\n                // i == tokenId \r\n                SaleTokenList[i] = SaleTokenList[SaleTokenList.length -1];\r\n                SaleTokenList.pop();\r\n                return true; \r\n            }\r\n        }\r\n        return false;\r\n    }\r\n\r\n    //   view \r\n    function getSaleTokenList() public view returns(TokenInfo[] memory) {\r\n        require(SaleTokenList.length > 0);\r\n\r\n        TokenInfo[] memory list = new TokenInfo[](SaleTokenList.length);\r\n        // new Array(SaleToken.length)\r\n\r\n        for(uint i = 0; i < SaleTokenList.length; i++){\r\n            uint tokenId = SaleTokenList[i];\r\n            uint Rank = Token.getTokenRank(tokenId);\r\n            uint Type = Token.getTokenType(tokenId);\r\n            uint price = tokenPrices[tokenId];\r\n            list[i] = TokenInfo(tokenId, Rank, Type, price);\r\n        }\r\n        return list;\r\n    }\r\n\r\n    //    \r\n    function getOwnerTokens(address _tokenOwner) public view returns(TokenInfo[] memory) {\r\n        // tokenOfOwnerByIndex\r\n        // balanceOf\r\n\r\n        uint balance = Token.balanceOf(_tokenOwner);\r\n        require(balance != 0);\r\n\r\n        TokenInfo[] memory list = new TokenInfo[](balance);\r\n\r\n        for(uint i = 0; i < balance; i++){\r\n            uint tokenId = Token.tokenOfOwnerByIndex(_tokenOwner, i);\r\n            uint Rank = Token.getTokenRank(tokenId);\r\n            uint Type = Token.getTokenType(tokenId);\r\n            uint price = tokenPrices[tokenId];\r\n\r\n            list[i] = TokenInfo(tokenId, Rank, Type, price);\r\n        }\r\n        return list;\r\n    }\r\n\r\n    //    \r\n\r\n    //    \r\n    function getlatestToken(address _tokenOwner) public view returns(TokenInfo memory) {\r\n        uint balance = Token.balanceOf(_tokenOwner);\r\n        uint tokenId = Token.tokenOfOwnerByIndex(_tokenOwner, balance-1);\r\n        uint Rank = Token.getTokenRank(tokenId);\r\n        uint Type = Token.getTokenType(tokenId);\r\n        uint price = tokenPrices[tokenId];\r\n\r\n        return TokenInfo(tokenId, Rank, Type, price);\r\n\r\n    }\r\n}",
  "sourcePath": "/home/juchan/workspace/220727/truffle/contracts/SaleToken.sol",
  "compiler": {
    "name": "solc",
    "version": "0.8.15+commit.e14f2714.Emscripten.clang"
  },
  "schemaVersion": "3.4.8",
  "updatedAt": "2022-07-29T00:23:40.415Z",
  "networkType": "ethereum",
  "devdoc": {
    "kind": "dev",
    "methods": {},
    "version": 1
  },
  "userdoc": {
    "kind": "user",
    "methods": {},
    "version": 1
  }
}